:100000000C948B000C94A2000C94A2000C94A200FF
:100010000C94A2000C94A2000C94A2000C94A200D8
:100020000C94A2000C94A2000C94A2000C94A200C8
:100030000C94A2000C94A2000C94A2000C94A200B8
:100040000C94A2000C94A2000C94A2000C94A200A8
:100050000C94A2000C94A2000C94A2000C94A20098
:100060000C94A2000C94A2000C94A2000C94A20088
:100070000C94A2000C94A2000C94A2000C94A20078
:100080000C94A2000C94A2000C94A2005401A701AD
:10009000A701A701A701A701A701A701A701A70120
:1000A000A701A701A701A701A701A701A701A70110
:1000B000A701A701A701A701A701A701A701A70100
:1000C000A701A701A701A701A701A701A701A701F0
:1000D000A701A101A701A701A701A701A701A701E6
:1000E0009601A701A701A701A701A7019C015A0139
:1000F000600166016C01720178017E0184018A0150
:10010000A701A701A701A701A701A701A701A701AF
:10011000A701A701900111241FBECFEFD0E4DEBFDD
:10012000CDBF11E0A0E0B1E0E2E7F3E000E00BBFFB
:1001300002C007900D92AE30B107D9F70E9423019B
:100140000C94B7010C940000CF93DF9300D01F9262
:10015000CDB7DEB789837B836A8389818A3031F4A6
:100160008A819B81BC018DE00E94A40080EC90E01C
:10017000FC018081882F90E0807299270097B1F36D
:1001800086EC90E02981FC01208380E090E00F90D4
:100190000F900F90DF91CF910895CF93DF93CDB75C
:1001A000DEB788E290E02FEEFC012083000086E2BB
:1001B00090E0FC018081882F90E081709927009762
:1001C00011F481E33DC086E290E0FC018081882F3C
:1001D00090E082709927009711F484E331C086E2A1
:1001E00090E0FC018081882F90E08470992700972F
:1001F00011F487E325C086E290E0FC018081882F1E
:1002000090E088709927009711F48AE219C088E27B
:1002100090E02FEDFC012083000086E290E0FC01DD
:100220008081882F90E081709927009711F482E3F4
:1002300007C088E290E02FEBFC012083000080E003
:10024000DF91CF910895CF93DF931F92CDB7DEB7A3
:1002500084E290E02FEFFC01208385E290E0FC0136
:10026000108287E290E020EFFC01208388E290E09A
:100270002FE0FC0120830E94CD0089838981882F93
:1002800090E0AA2797FDA095BA2F40E050E024E423
:1002900030E0841B950B2817390708F458C08A5B97
:1002A0009F4FFC010C94AE0185E290E02FE1FC0130
:1002B000208353C085E290E021E0FC0120834DC003
:1002C00085E290E022E0FC01208347C085E290E0D7
:1002D00023E0FC01208341C085E290E024E0FC01A2
:1002E00020833BC085E290E025E0FC01208335C0FF
:1002F00085E290E026E0FC0120832FC085E290E0BB
:1003000027E0FC01208329C085E290E028E0FC0181
:10031000208323C085E290E023E0FC0120831DC000
:1003200085E290E02DE0FC01208317C085E290E09B
:100330002EE0FC01208311C085E290E0FC011082D8
:100340000CC085E290E02FE0FC01208306C085E22E
:1003500090E02BE1FC01208300008DCFEE0FFF1F0A
:100360000024001C0BBE0790F691E02D0994F89430
:02037000FFCFBD
:0E0372000000000200000000A40000000000D7
:00000001FF
